{
  "contractName": "Safe",
  "abi": [
    {
      "inputs": [],
      "name": "balance",
      "outputs": [
        {
          "internalType": "uint256",
          "name": "",
          "type": "uint256"
        }
      ],
      "stateMutability": "view",
      "type": "function"
    },
    {
      "inputs": [],
      "name": "deposit",
      "outputs": [],
      "stateMutability": "payable",
      "type": "function"
    },
    {
      "inputs": [],
      "name": "getBalance",
      "outputs": [
        {
          "internalType": "uint256",
          "name": "",
          "type": "uint256"
        }
      ],
      "stateMutability": "view",
      "type": "function"
    }
  ],
  "bytecode": "0x608060405234801561001057600080fd5b5060e38061001f6000396000f3fe60806040526004361060305760003560e01c806312065fe0146035578063b69ef8a814605d578063d0e30db0146085575b600080fd5b348015604057600080fd5b506047608d565b6040518082815260200191505060405180910390f35b348015606857600080fd5b50606f6096565b6040518082815260200191505060405180910390f35b608b609c565b005b60008054905090565b60005481565b34600080828254019250508190555056fea26469706673582212207c15290658637cf9863f5f588663cdae3bfabc1ea60b1d12def9841ef276ad1964736f6c634300060a0033",
  "immutableReferences": {},
  "source": "// SPDX-License-Identifier: MIT\npragma solidity ^0.6.10;\n\ncontract Unsafe {\n    function getBalance() public view returns (uint256) {\n        return address(this).balance;\n    }\n}\n\ncontract ForceSend {\n    function kill(address payable addr) public payable {\n        selfdestruct(addr);\n    }\n\n    function receiveEth() payable public {\n    }\n}\n\ncontract Safe {\n\n    uint public balance;\n\n    function deposit() payable public { // Use a function to deposit ether which relies on a variable rather than address(this).balance\n        balance += msg.value;\n    }\n    function getBalance() public view returns (uint256) {\n        return balance;\n    }\n}",
  "sourcePath": "/home/dev/Desktop/Sol/other/Smart_contract_programmer/Security/contracts/ForceSendEth.sol",
  "compiler": {
    "name": "solc",
    "version": "0.6.10+commit.00c0fcaf.Emscripten.clang"
  },
  "schemaVersion": "3.4.3",
  "updatedAt": "2021-11-12T05:03:23.854Z",
  "devdoc": {
    "methods": {}
  },
  "userdoc": {
    "methods": {}
  }
}